:100000000C9462000C948A000C948A000C948A0070
:100010000C948A000C948A000C948A000C948A0038
:100020000C948A000C948A000C948A000C948A0028
:100030000C948A000C948A000C948A000C948A0018
:100040000C949D030C948A000C948A000C948A00F2
:100050000C948A000C948A000C948A000C948A00F8
:100060000C948A000C948A000000000023002600F3
:10007000290000000000240027002A0000000000E2
:10008000250028002B0004040404040404040202D4
:100090000202020203030303030301020408102007
:1000A0004080010204081020010204081020000012
:1000B0000008000201000003040700000000000027
:1000C0000000AA0511241FBECFEFD8E0DEBFCDBFD0
:1000D00011E0A0E0B1E0E6E4FEE002C005900D9280
:1000E000AC30B107D9F721E0ACE0B1E001C01D921E
:1000F000AD32B207E1F710E0C2E6D0E004C02197CC
:10010000FE010E941B07C136D107C9F70E942C04CB
:100110000C9421070C940000833081F028F4813086
:1001200099F08230A9F008958730A9F08830C9F09D
:100130008430B1F4809180008F7D03C08091800075
:100140008F7780938000089584B58F7784BD08955C
:1001500084B58F7DFBCF8091B0008F778093B00006
:1001600008958091B0008F7DF9CF1F93CF93DF93D7
:10017000282F30E0F901E255FF4F8491F901E6564E
:10018000FF4FD491F901EA57FF4FC491CC23A9F056
:10019000162F81110E948C00EC2FF0E0EE0FFF1F54
:1001A000E458FF4FA591B4918FB7F894EC911111D9
:1001B00008C0D095DE23DC938FBFDF91CF911F91D4
:1001C0000895DE2BF8CFE0EBF0E0E491E33019F195
:1001D00040F4E130B1F0E230C9F061E082E00C942B
:1001E000B500E73011F1E83041F1E430B1F720918A
:1001F000800020622093800090938B0080938A007F
:10020000089594B5906894BD87BD089594B59062A3
:1002100094BD88BD089520918000206820938000BF
:10022000909389008093880008959091B000906821
:100230009093B0008093B30008959091B0009062C5
:100240009093B0008093B4000895CF93DF9390E033
:10025000FC01E656FF4F24918A579F4FFC01849181
:100260008823D1F090E0880F991FFC01EE58FF4FD2
:10027000A591B491FC01E458FF4FC591D49161114F
:100280000EC09FB7F8948C91E22FE0958E238C934B
:100290002881E223E8839FBFDF91CF9108958FB734
:1002A000F894EC91E22BEC938FBFF6CF3FB7F89424
:1002B0008091110190911201A0911301B09114014C
:1002C00026B5A89B05C02F3F19F00196A11DB11DB1
:1002D0003FBFBA2FA92F982F8827BC01CD01620FED
:1002E000711D811D911D42E0660F771F881F991FA8
:1002F0004A95D1F708958F929F92AF92BF92CF9275
:10030000DF92EF92FF924B015C010E9456016B015C
:100310007C010E9456016C197D098E099F09683E77
:10032000734081059105A8F321E0821A9108A10884
:10033000B10888EEC80E83E0D81EE11CF11C8114C0
:100340009104A104B10429F7FF90EF90DF90CF90C2
:10035000BF90AF909F908F900895AF92BF92CF9231
:10036000DF92EF92FF920F931F93CF93DF936C0175
:100370007B018B01040F151FEB015E01AE18BF0856
:10038000C017D10759F06991D601ED91FC91019008
:10039000F081E02DC6010995892B79F7C501DF9120
:1003A000CF911F910F91FF90EF90DF90CF90BF9072
:1003B000AF900895089590E080E008958F929F9205
:1003C000AF92BF920F931F93CF93DF93CDB7DEB75A
:1003D000A1970FB6F894DEBF0FBECDBF19A2423071
:1003E00008F44AE08E010F5D1F4F842E912CB12C32
:1003F000A12CA50194010E94F906E62FB901CA01BA
:10040000EA3044F5E05DD801EE938D01232B242BD7
:10041000252B79F790E080E0109769F0FD010190BD
:100420000020E9F73197AF014A1B5B0BBD0185E165
:1004300091E00E94AD01A1960FB6F894DEBF0FBE09
:10044000CDBFDF91CF911F910F91BF90AF909F9043
:100450008F900895E95CD7CFCF93DF93EC0160E0F4
:100460008E810E94B50061E08E810E94B50060E03F
:100470008E810E94B5008BE891E00197F1F7DF9142
:10048000CF910895CF92DF92EF92FF920F931F9337
:10049000CF93DF936C017C0187E0E80EF11CD0E084
:1004A000C0E0062F10E0B8010C2E02C075956795CC
:1004B0000A94E2F76170F70181917F010E94B50013
:1004C0002196C430D10579F7C601DF91CF911F91F4
:1004D0000F91FF90EF90DF90CF900C942C02CF9271
:1004E000DF92EF92FF920F931F93CF93DF93EC0174
:1004F000F62E642F8C810E94B5008D818F3F19F0FC
:1005000060E00E94B5000F2D10E08F8584FF25C0AC
:100510006E0187E0C80ED11CF12CE12CB8010E2C25
:1005200002C0759567950A94E2F76170F6018191B2
:100530006F010E94B500FFEFEF1AFF0A88E0E8168E
:10054000F10461F7CE01DF91CF911F910F91FF90E0
:10055000EF90DF90CF900C942C02B80184E0759559
:1005600067958A95E1F7CE010E9442026F2DCE0178
:10057000DF91CF911F910F91FF90EF90DF90CF907F
:100580000C94420240E0682F85E191E00C946F02E8
:10059000CF93DF93823029F4909124019860909357
:1005A0002401809328011092290180E480932A017C
:1005B00080E180932B0180E580932C0161E08091A4
:1005C00019010E94250180911A018F3F19F061E005
:1005D0000E94250161E080911B010E942501C5E177
:1005E000D1E09E01255131408091240184FD0BC052
:1005F00084E090E021962817390744F461E08E8169
:100600000E942501EECF88E090E0F4CF8BE39DE0DF
:100610000197F1F760E0809119010E94B50060E058
:1006200080911B010E94B50080911A018F3F19F043
:1006300060E00E94B5008091240184FD39C063E030
:1006400085E191E00E944202CBE4D6E4CE0101971D
:10065000F1F763E085E191E00E9442022197F1F712
:1006600063E085E191E00E94420283E592E0019718
:10067000F1F762E085E191E00E944202809124015D
:1006800080620E94C20284E0809325018CE00E9477
:10069000C20281E00E94C2028BE39FE10197F1F761
:1006A00082E08093260186E0DF91CF910C94C20214
:1006B00080620E94C2028BE496E40197F1F7809178
:1006C000240180620E94C20283E592E00197F1F763
:1006D0008091240180620E94C202D0CF41E00E943A
:1006E0006F0281E090E00895CF92DF92EF92FF9247
:1006F0006C01990FEE08FF08F7FE16C041E06DE2AD
:1007000085E191E00E946F0266277727CB016C1983
:100710007D098E099F094AE00E94DE010196FF9043
:10072000EF90DF90CF9008954AE0C701B601FF90A7
:10073000EF90DF90CF900C94DE011F920F920FB6D6
:100740000F9211242F933F938F939F93AF93BF9357
:1007500080910D0190910E01A0910F01B0911001B7
:1007600030910C0123E0230F2D3758F50196A11D80
:10077000B11D20930C0180930D0190930E01A09365
:100780000F01B09310018091110190911201A0917D
:100790001301B09114010196A11DB11D80931101A7
:1007A00090931201A0931301B0931401BF91AF91E4
:1007B0009F918F913F912F910F900FBE0F901F909F
:1007C000189526E8230F0296A11DB11DD2CFCF9216
:1007D000DF92EF92FF920F931F93E82FF92F05C03E
:1007E000015011092109310961F190819623941773
:1007F000B9F305C0015011092109310911F19081A6
:1008000096239413F7CFC12CD12CE12CF12C0AC0E4
:100810008FEFC81AD80AE80AF80A0C151D052E052C
:100820003F0579F080818623841791F36C2D7D2D0F
:100830008E2D9F2D1F910F91FF90EF90DF90CF9005
:10084000089560E070E080E090E01F910F91FF90CC
:10085000EF90DF90CF900895789484B5826084BD46
:1008600084B5816084BD85B5826085BD85B58160B4
:1008700085BD80916E00816080936E001092810032
:1008800080918100826080938100809181008160ED
:1008900080938100809180008160809380008091AE
:1008A000B10084608093B1008091B000816080933A
:1008B000B00080917A00846080937A0080917A0001
:1008C000826080937A0080917A00816080937A00C0
:1008D00080917A00806880937A001092C10061E074
:1008E00084E00E94250161E082E00E94250161E030
:1008F0008CE00E94250160E08BE00E94250161E010
:1009000080E00E94250161E081E00E94250161E014
:1009100082E00E94250160E08EE00E94250182E0D5
:100920000E94C80221E9222E20E0322E3CEB432E09
:1009300030E0532E48EA642E40E0742E54E9E52E50
:1009400050E0F52E60E0C62E60E0D62E60E08CE030
:100950000E94B50062E070E080E090E00E947B01C0
:1009600061E08CE00E94B5006AE070E080E090E019
:100970000E947B0160E08CE00E94B500E5EAF0E0B7
:100980006491F1018491E82FF0E0EE0FFF1FE85928
:10099000FF4F8591949100E412E42FE030E0462F60
:1009A0000E94E703611571058105910529F06F5FCC
:1009B0007F4F8F4F9F4F9F70072E000C880B990B16
:1009C0000E94000626E933E44BE05DE30E946406E2
:1009D00020E030E040E05FE30E9464060E94C8052A
:1009E0004B01F2018491F301C491F701D491DD230D
:1009F00009F497C081110E948C00ED2FF0E0EE0FFA
:100A0000FF1FE859FF4FA591B4918C91C82331E0A5
:100A100020E009F430E0832F922FF4E1F89F800169
:100A2000F99F100D1124E0912801E23008F07CC0FC
:100A3000E150F0E0EB5EFE4F84898F5F80680E949A
:100A4000C202C8010E947403E40197FE04C0CC27CF
:100A5000DD27C819D909E1E0809128018111E0E082
:100A6000E195F0E0EB5EFE4F848980680E94C2024F
:100A7000CE010E947403CE01855F9140843F914076
:100A8000B0F461E080E00E94B50060E081E00E9487
:100A9000B50061E082E00E94250184EB90E00E94B5
:100AA000E3006CE271E080E090E00E947B01CE0107
:100AB0008B5F91098A3F9105C8F561E080E00E9453
:100AC000B50060E081E00E94B50061E082E00E9434
:100AD000250186EE90E00E94E3006CE271E080E088
:100AE00090E00E947B0104311105A1F461E084E0F3
:100AF0000E94B50068EB7BE080E090E00E947B0103
:100B000060E084E00E94B50068EB7BE080E090E06C
:100B10000E947B01C114D10409F418CF0E94000087
:100B200015CF90E080E079CFE1E083CFCB3FD105D6
:100B3000D4F661E080E00E94B50060E081E00E94B0
:100B4000B50061E082E00E94250161E082E00E9440
:100B5000B500C3CFE5E1F1E01382128284E091E0B9
:100B6000918380838AE084838FEF858389E0868305
:100B700088E0878387E0808786E0818785E08287B9
:100B80001386148615861686178681E00C94C80293
:100B90000E94CF056894B1110C945E0608950E94DE
:100BA000430688F09F5798F0B92F9927B751B0F0B6
:100BB000E1F0660F771F881F991F1AF0BA95C9F7E1
:100BC00014C0B13091F00E945D06B1E008950C941C
:100BD0005D06672F782F8827B85F39F0B93FCCF3CF
:100BE000869577956795B395D9F73EF4909580955E
:100BF000709561957F4F8F4F9F4F0895E89409C07E
:100C000097FB3EF490958095709561957F4F8F4F3F
:100C10009F4F9923A9F0F92F96E9BB279395F69555
:100C2000879577956795B795F111F8CFFAF4BB0FD3
:100C300011F460FF1BC06F5F7F4F8F4F9F4F16C037
:100C4000882311F096E911C0772321F09EE8872FC1
:100C5000762F05C0662371F096E8862F70E060E07D
:100C60002AF09A95660F771F881FDAF7880F9695F6
:100C7000879597F9089557FD9058440F551F59F0DF
:100C80005F3F71F04795880F97FB991F61F09F3F79
:100C900079F087950895121613061406551FF2CFA2
:100CA0004695F1DF08C0161617061806991FF1CFF2
:100CB00086957105610508940895E894BB27662719
:100CC0007727CB0197F908950E9477060C94E806E0
:100CD0000E94DA0638F00E94E10620F0952311F018
:100CE0000C94D1060C94D70611240C945E060E9435
:100CF0003B0670F3959FC1F3950F50E0551F629F1F
:100D0000F001729FBB27F00DB11D639FAA27F00D64
:100D1000B11DAA1F649F6627B00DA11D661F829F8B
:100D20002227B00DA11D621F739FB00DA11D621F70
:100D3000839FA00D611D221F749F3327A00D611D8D
:100D4000231F849F600D211D822F762F6A2F11246F
:100D50009F5750409AF0F1F088234AF0EE0FFF1FA2
:100D6000BB1F661F771F881F91505040A9F79E3FF9
:100D7000510580F00C94D1060C945E065F3FE4F3BD
:100D8000983ED4F3869577956795B795F795E7954F
:100D90009F5FC1F7FE2B880F911D9695879597F958
:100DA000089597F99F6780E870E060E008959FEFED
:100DB00080EC089500240A941616170618060906F2
:100DC000089500240A9412161306140605060895C1
:100DD000092E0394000C11F4882352F0BB0F40F449
:100DE000BF2B11F460FF04C06F5F7F4F8F4F9F4F89
:100DF0000895A1E21A2EAA1BBB1BFD010DC0AA1F5C
:100E0000BB1FEE1FFF1FA217B307E407F50720F073
:100E1000A21BB30BE40BF50B661F771F881F991FEE
:100E20001A9469F760957095809590959B01AC0137
:100E3000BD01CF010895EE0FFF1F0590F491E02D45
:060E40000994F894FFCFB5
:0C0E4600000000006E03AD01DB01DA01CA
:00000001FF
